{
  "contractName": "GSMCToken",
  "abi": [
    {
      "inputs": [
        {
          "internalType": "uint256",
          "name": "initialSupply",
          "type": "uint256"
        },
        {
          "internalType": "address",
          "name": "initialOwner",
          "type": "address"
        },
        {
          "internalType": "address",
          "name": "forwarder",
          "type": "address"
        }
      ],
      "stateMutability": "nonpayable",
      "type": "constructor"
    },
    {
      "inputs": [
        {
          "internalType": "address",
          "name": "spender",
          "type": "address"
        },
        {
          "internalType": "uint256",
          "name": "allowance",
          "type": "uint256"
        },
        {
          "internalType": "uint256",
          "name": "needed",
          "type": "uint256"
        }
      ],
      "name": "ERC20InsufficientAllowance",
      "type": "error"
    },
    {
      "inputs": [
        {
          "internalType": "address",
          "name": "sender",
          "type": "address"
        },
        {
          "internalType": "uint256",
          "name": "balance",
          "type": "uint256"
        },
        {
          "internalType": "uint256",
          "name": "needed",
          "type": "uint256"
        }
      ],
      "name": "ERC20InsufficientBalance",
      "type": "error"
    },
    {
      "inputs": [
        {
          "internalType": "address",
          "name": "approver",
          "type": "address"
        }
      ],
      "name": "ERC20InvalidApprover",
      "type": "error"
    },
    {
      "inputs": [
        {
          "internalType": "address",
          "name": "receiver",
          "type": "address"
        }
      ],
      "name": "ERC20InvalidReceiver",
      "type": "error"
    },
    {
      "inputs": [
        {
          "internalType": "address",
          "name": "sender",
          "type": "address"
        }
      ],
      "name": "ERC20InvalidSender",
      "type": "error"
    },
    {
      "inputs": [
        {
          "internalType": "address",
          "name": "spender",
          "type": "address"
        }
      ],
      "name": "ERC20InvalidSpender",
      "type": "error"
    },
    {
      "inputs": [
        {
          "internalType": "address",
          "name": "owner",
          "type": "address"
        }
      ],
      "name": "OwnableInvalidOwner",
      "type": "error"
    },
    {
      "inputs": [
        {
          "internalType": "address",
          "name": "account",
          "type": "address"
        }
      ],
      "name": "OwnableUnauthorizedAccount",
      "type": "error"
    },
    {
      "anonymous": false,
      "inputs": [
        {
          "indexed": true,
          "internalType": "address",
          "name": "owner",
          "type": "address"
        },
        {
          "indexed": true,
          "internalType": "address",
          "name": "spender",
          "type": "address"
        },
        {
          "indexed": false,
          "internalType": "uint256",
          "name": "value",
          "type": "uint256"
        }
      ],
      "name": "Approval",
      "type": "event"
    },
    {
      "anonymous": false,
      "inputs": [
        {
          "indexed": true,
          "internalType": "address",
          "name": "previousOwner",
          "type": "address"
        },
        {
          "indexed": true,
          "internalType": "address",
          "name": "newOwner",
          "type": "address"
        }
      ],
      "name": "OwnershipTransferred",
      "type": "event"
    },
    {
      "anonymous": false,
      "inputs": [
        {
          "indexed": true,
          "internalType": "address",
          "name": "from",
          "type": "address"
        },
        {
          "indexed": true,
          "internalType": "address",
          "name": "to",
          "type": "address"
        },
        {
          "indexed": false,
          "internalType": "uint256",
          "name": "value",
          "type": "uint256"
        }
      ],
      "name": "Transfer",
      "type": "event"
    },
    {
      "inputs": [
        {
          "internalType": "address",
          "name": "owner",
          "type": "address"
        },
        {
          "internalType": "address",
          "name": "spender",
          "type": "address"
        }
      ],
      "name": "allowance",
      "outputs": [
        {
          "internalType": "uint256",
          "name": "",
          "type": "uint256"
        }
      ],
      "stateMutability": "view",
      "type": "function"
    },
    {
      "inputs": [
        {
          "internalType": "address",
          "name": "spender",
          "type": "address"
        },
        {
          "internalType": "uint256",
          "name": "value",
          "type": "uint256"
        }
      ],
      "name": "approve",
      "outputs": [
        {
          "internalType": "bool",
          "name": "",
          "type": "bool"
        }
      ],
      "stateMutability": "nonpayable",
      "type": "function"
    },
    {
      "inputs": [
        {
          "internalType": "address",
          "name": "account",
          "type": "address"
        }
      ],
      "name": "balanceOf",
      "outputs": [
        {
          "internalType": "uint256",
          "name": "",
          "type": "uint256"
        }
      ],
      "stateMutability": "view",
      "type": "function"
    },
    {
      "inputs": [],
      "name": "decimals",
      "outputs": [
        {
          "internalType": "uint8",
          "name": "",
          "type": "uint8"
        }
      ],
      "stateMutability": "view",
      "type": "function"
    },
    {
      "inputs": [],
      "name": "getTrustedForwarder",
      "outputs": [
        {
          "internalType": "address",
          "name": "forwarder",
          "type": "address"
        }
      ],
      "stateMutability": "view",
      "type": "function"
    },
    {
      "inputs": [
        {
          "internalType": "address",
          "name": "forwarder",
          "type": "address"
        }
      ],
      "name": "isTrustedForwarder",
      "outputs": [
        {
          "internalType": "bool",
          "name": "",
          "type": "bool"
        }
      ],
      "stateMutability": "view",
      "type": "function"
    },
    {
      "inputs": [],
      "name": "name",
      "outputs": [
        {
          "internalType": "string",
          "name": "",
          "type": "string"
        }
      ],
      "stateMutability": "view",
      "type": "function"
    },
    {
      "inputs": [],
      "name": "owner",
      "outputs": [
        {
          "internalType": "address",
          "name": "",
          "type": "address"
        }
      ],
      "stateMutability": "view",
      "type": "function"
    },
    {
      "inputs": [],
      "name": "renounceOwnership",
      "outputs": [],
      "stateMutability": "nonpayable",
      "type": "function"
    },
    {
      "inputs": [],
      "name": "symbol",
      "outputs": [
        {
          "internalType": "string",
          "name": "",
          "type": "string"
        }
      ],
      "stateMutability": "view",
      "type": "function"
    },
    {
      "inputs": [],
      "name": "totalSupply",
      "outputs": [
        {
          "internalType": "uint256",
          "name": "",
          "type": "uint256"
        }
      ],
      "stateMutability": "view",
      "type": "function"
    },
    {
      "inputs": [
        {
          "internalType": "address",
          "name": "to",
          "type": "address"
        },
        {
          "internalType": "uint256",
          "name": "value",
          "type": "uint256"
        }
      ],
      "name": "transfer",
      "outputs": [
        {
          "internalType": "bool",
          "name": "",
          "type": "bool"
        }
      ],
      "stateMutability": "nonpayable",
      "type": "function"
    },
    {
      "inputs": [
        {
          "internalType": "address",
          "name": "from",
          "type": "address"
        },
        {
          "internalType": "address",
          "name": "to",
          "type": "address"
        },
        {
          "internalType": "uint256",
          "name": "value",
          "type": "uint256"
        }
      ],
      "name": "transferFrom",
      "outputs": [
        {
          "internalType": "bool",
          "name": "",
          "type": "bool"
        }
      ],
      "stateMutability": "nonpayable",
      "type": "function"
    },
    {
      "inputs": [
        {
          "internalType": "address",
          "name": "newOwner",
          "type": "address"
        }
      ],
      "name": "transferOwnership",
      "outputs": [],
      "stateMutability": "nonpayable",
      "type": "function"
    },
    {
      "inputs": [
        {
          "internalType": "address",
          "name": "to",
          "type": "address"
        },
        {
          "internalType": "uint256",
          "name": "amount",
          "type": "uint256"
        }
      ],
      "name": "faucet",
      "outputs": [],
      "stateMutability": "nonpayable",
      "type": "function"
    },
    {
      "inputs": [],
      "name": "versionRecipient",
      "outputs": [
        {
          "internalType": "string",
          "name": "",
          "type": "string"
        }
      ],
      "stateMutability": "pure",
      "type": "function"
    }
  ],
  "bytecode": "0x608060405234801562000010575f80fd5b5060405162001d3738038062001d378339818101604052810190620000369190620005cb565b816040518060400160405280600a81526020017f47534d4320546f6b656e000000000000000000000000000000000000000000008152506040518060400160405280600481526020017f47534d43000000000000000000000000000000000000000000000000000000008152508160039081620000b491906200087f565b508060049081620000c691906200087f565b5050505f73ffffffffffffffffffffffffffffffffffffffff168173ffffffffffffffffffffffffffffffffffffffff16036200013c575f6040517f1e4fbdf700000000000000000000000000000000000000000000000000000000815260040162000133919062000974565b60405180910390fd5b6200014d816200017a60201b60201c565b506200016082846200023d60201b60201c565b6200017181620002c760201b60201c565b50505062000a5d565b5f60055f9054906101000a900473ffffffffffffffffffffffffffffffffffffffff1690508160055f6101000a81548173ffffffffffffffffffffffffffffffffffffffff021916908373ffffffffffffffffffffffffffffffffffffffff1602179055508173ffffffffffffffffffffffffffffffffffffffff168173ffffffffffffffffffffffffffffffffffffffff167f8be0079c531659141344cd1fd0a4f28419497f9722a3daafe3b4186f6b6457e060405160405180910390a35050565b5f73ffffffffffffffffffffffffffffffffffffffff168273ffffffffffffffffffffffffffffffffffffffff1603620002b0575f6040517fec442f05000000000000000000000000000000000000000000000000000000008152600401620002a7919062000974565b60405180910390fd5b620002c35f83836200030a60201b60201c565b5050565b8060065f6101000a81548173ffffffffffffffffffffffffffffffffffffffff021916908373ffffffffffffffffffffffffffffffffffffffff16021790555050565b5f73ffffffffffffffffffffffffffffffffffffffff168373ffffffffffffffffffffffffffffffffffffffff16036200035e578060025f828254620003519190620009bc565b925050819055506200042f565b5f805f8573ffffffffffffffffffffffffffffffffffffffff1673ffffffffffffffffffffffffffffffffffffffff1681526020019081526020015f2054905081811015620003ea578381836040517fe450d38c000000000000000000000000000000000000000000000000000000008152600401620003e19392919062000a07565b60405180910390fd5b8181035f808673ffffffffffffffffffffffffffffffffffffffff1673ffffffffffffffffffffffffffffffffffffffff1681526020019081526020015f2081905550505b5f73ffffffffffffffffffffffffffffffffffffffff168273ffffffffffffffffffffffffffffffffffffffff160362000478578060025f8282540392505081905550620004c2565b805f808473ffffffffffffffffffffffffffffffffffffffff1673ffffffffffffffffffffffffffffffffffffffff1681526020019081526020015f205f82825401925050819055505b8173ffffffffffffffffffffffffffffffffffffffff168373ffffffffffffffffffffffffffffffffffffffff167fddf252ad1be2c89b69c2b068fc378daa952ba7f163c4a11628f55a4df523b3ef8360405162000521919062000a42565b60405180910390a3505050565b5f80fd5b5f819050919050565b620005468162000532565b811462000551575f80fd5b50565b5f8151905062000564816200053b565b92915050565b5f73ffffffffffffffffffffffffffffffffffffffff82169050919050565b5f62000595826200056a565b9050919050565b620005a78162000589565b8114620005b2575f80fd5b50565b5f81519050620005c5816200059c565b92915050565b5f805f60608486031215620005e557620005e46200052e565b5b5f620005f48682870162000554565b93505060206200060786828701620005b5565b92505060406200061a86828701620005b5565b9150509250925092565b5f81519050919050565b7f4e487b71000000000000000000000000000000000000000000000000000000005f52604160045260245ffd5b7f4e487b71000000000000000000000000000000000000000000000000000000005f52602260045260245ffd5b5f6002820490506001821680620006a057607f821691505b602082108103620006b657620006b56200065b565b5b50919050565b5f819050815f5260205f209050919050565b5f6020601f8301049050919050565b5f82821b905092915050565b5f600883026200071a7fffffffffffffffffffffffffffffffffffffffffffffffffffffffffffffffff82620006dd565b620007268683620006dd565b95508019841693508086168417925050509392505050565b5f819050919050565b5f62000767620007616200075b8462000532565b6200073e565b62000532565b9050919050565b5f819050919050565b620007828362000747565b6200079a62000791826200076e565b848454620006e9565b825550505050565b5f90565b620007b0620007a2565b620007bd81848462000777565b505050565b5b81811015620007e457620007d85f82620007a6565b600181019050620007c3565b5050565b601f8211156200083357620007fd81620006bc565b6200080884620006ce565b8101602085101562000818578190505b620008306200082785620006ce565b830182620007c2565b50505b505050565b5f82821c905092915050565b5f620008555f198460080262000838565b1980831691505092915050565b5f6200086f838362000844565b9150826002028217905092915050565b6200088a8262000624565b67ffffffffffffffff811115620008a657620008a56200062e565b5b620008b2825462000688565b620008bf828285620007e8565b5f60209050601f831160018114620008f5575f8415620008e0578287015190505b620008ec858262000862565b8655506200095b565b601f1984166200090586620006bc565b5f5b828110156200092e5784890151825560018201915060208501945060208101905062000907565b868310156200094e57848901516200094a601f89168262000844565b8355505b6001600288020188555050505b505050505050565b6200096e8162000589565b82525050565b5f602082019050620009895f83018462000963565b92915050565b7f4e487b71000000000000000000000000000000000000000000000000000000005f52601160045260245ffd5b5f620009c88262000532565b9150620009d58362000532565b9250828201905080821115620009f057620009ef6200098f565b5b92915050565b62000a018162000532565b82525050565b5f60608201905062000a1c5f83018662000963565b62000a2b6020830185620009f6565b62000a3a6040830184620009f6565b949350505050565b5f60208201905062000a575f830184620009f6565b92915050565b6112cc8062000a6b5f395ff3fe608060405234801561000f575f80fd5b50600436106100fe575f3560e01c8063715018a611610095578063a9059cbb11610064578063a9059cbb1461029c578063ce1b815f146102cc578063dd62ed3e146102ea578063f2fde38b1461031a576100fe565b8063715018a61461023a5780637b56c2b2146102445780638da5cb5b1461026057806395d89b411461027e576100fe565b8063313ce567116100d1578063313ce5671461019e578063486ff0cd146101bc578063572b6c05146101da57806370a082311461020a576100fe565b806306fdde0314610102578063095ea7b31461012057806318160ddd1461015057806323b872dd1461016e575b5f80fd5b61010a610336565b6040516101179190610f45565b60405180910390f35b61013a60048036038101906101359190610ff6565b6103c6565b604051610147919061104e565b60405180910390f35b6101586103e8565b6040516101659190611076565b60405180910390f35b6101886004803603810190610183919061108f565b6103f1565b604051610195919061104e565b60405180910390f35b6101a661041f565b6040516101b391906110fa565b60405180910390f35b6101c4610427565b6040516101d19190610f45565b60405180910390f35b6101f460048036038101906101ef9190611113565b610464565b604051610201919061104e565b60405180910390f35b610224600480360381019061021f9190611113565b6104bc565b6040516102319190611076565b60405180910390f35b610242610501565b005b61025e60048036038101906102599190610ff6565b610514565b005b61026861052a565b604051610275919061114d565b60405180910390f35b610286610552565b6040516102939190610f45565b60405180910390f35b6102b660048036038101906102b19190610ff6565b6105e2565b6040516102c3919061104e565b60405180910390f35b6102d4610604565b6040516102e1919061114d565b60405180910390f35b61030460048036038101906102ff9190611166565b61062c565b6040516103119190611076565b60405180910390f35b610334600480360381019061032f9190611113565b6106ae565b005b606060038054610345906111d1565b80601f0160208091040260200160405190810160405280929190818152602001828054610371906111d1565b80156103bc5780601f10610393576101008083540402835291602001916103bc565b820191905f5260205f20905b81548152906001019060200180831161039f57829003601f168201915b5050505050905090565b5f806103d0610732565b90506103dd818585610740565b600191505092915050565b5f600254905090565b5f806103fb610732565b9050610408858285610752565b6104138585856107e5565b60019150509392505050565b5f6012905090565b60606040518060400160405280600581526020017f332e302e31000000000000000000000000000000000000000000000000000000815250905090565b5f60065f9054906101000a900473ffffffffffffffffffffffffffffffffffffffff1673ffffffffffffffffffffffffffffffffffffffff168273ffffffffffffffffffffffffffffffffffffffff16149050919050565b5f805f8373ffffffffffffffffffffffffffffffffffffffff1673ffffffffffffffffffffffffffffffffffffffff1681526020019081526020015f20549050919050565b6105096108d5565b6105125f61095c565b565b61051c6108d5565b6105268282610a1f565b5050565b5f60055f9054906101000a900473ffffffffffffffffffffffffffffffffffffffff16905090565b606060048054610561906111d1565b80601f016020809104026020016040519081016040528092919081815260200182805461058d906111d1565b80156105d85780601f106105af576101008083540402835291602001916105d8565b820191905f5260205f20905b8154815290600101906020018083116105bb57829003601f168201915b5050505050905090565b5f806105ec610732565b90506105f98185856107e5565b600191505092915050565b5f60065f9054906101000a900473ffffffffffffffffffffffffffffffffffffffff16905090565b5f60015f8473ffffffffffffffffffffffffffffffffffffffff1673ffffffffffffffffffffffffffffffffffffffff1681526020019081526020015f205f8373ffffffffffffffffffffffffffffffffffffffff1673ffffffffffffffffffffffffffffffffffffffff1681526020019081526020015f2054905092915050565b6106b66108d5565b5f73ffffffffffffffffffffffffffffffffffffffff168173ffffffffffffffffffffffffffffffffffffffff1603610726575f6040517f1e4fbdf700000000000000000000000000000000000000000000000000000000815260040161071d919061114d565b60405180910390fd5b61072f8161095c565b50565b5f61073b610a9e565b905090565b61074d8383836001610ad3565b505050565b5f61075d848461062c565b90507fffffffffffffffffffffffffffffffffffffffffffffffffffffffffffffffff8110156107df57818110156107d0578281836040517ffb8f41b20000000000000000000000000000000000000000000000000000000081526004016107c793929190611201565b60405180910390fd5b6107de84848484035f610ad3565b5b50505050565b5f73ffffffffffffffffffffffffffffffffffffffff168373ffffffffffffffffffffffffffffffffffffffff1603610855575f6040517f96c6fd1e00000000000000000000000000000000000000000000000000000000815260040161084c919061114d565b60405180910390fd5b5f73ffffffffffffffffffffffffffffffffffffffff168273ffffffffffffffffffffffffffffffffffffffff16036108c5575f6040517fec442f050000000000000000000000000000000000000000000000000000000081526004016108bc919061114d565b60405180910390fd5b6108d0838383610ca2565b505050565b6108dd610732565b73ffffffffffffffffffffffffffffffffffffffff166108fb61052a565b73ffffffffffffffffffffffffffffffffffffffff161461095a5761091e610732565b6040517f118cdaa7000000000000000000000000000000000000000000000000000000008152600401610951919061114d565b60405180910390fd5b565b5f60055f9054906101000a900473ffffffffffffffffffffffffffffffffffffffff1690508160055f6101000a81548173ffffffffffffffffffffffffffffffffffffffff021916908373ffffffffffffffffffffffffffffffffffffffff1602179055508173ffffffffffffffffffffffffffffffffffffffff168173ffffffffffffffffffffffffffffffffffffffff167f8be0079c531659141344cd1fd0a4f28419497f9722a3daafe3b4186f6b6457e060405160405180910390a35050565b5f73ffffffffffffffffffffffffffffffffffffffff168273ffffffffffffffffffffffffffffffffffffffff1603610a8f575f6040517fec442f05000000000000000000000000000000000000000000000000000000008152600401610a86919061114d565b60405180910390fd5b610a9a5f8383610ca2565b5050565b5f60145f36905010158015610ab85750610ab733610464565b5b15610acc57601436033560601c9050610ad0565b3390505b90565b5f73ffffffffffffffffffffffffffffffffffffffff168473ffffffffffffffffffffffffffffffffffffffff1603610b43575f6040517fe602df05000000000000000000000000000000000000000000000000000000008152600401610b3a919061114d565b60405180910390fd5b5f73ffffffffffffffffffffffffffffffffffffffff168373ffffffffffffffffffffffffffffffffffffffff1603610bb3575f6040517f94280d62000000000000000000000000000000000000000000000000000000008152600401610baa919061114d565b60405180910390fd5b8160015f8673ffffffffffffffffffffffffffffffffffffffff1673ffffffffffffffffffffffffffffffffffffffff1681526020019081526020015f205f8573ffffffffffffffffffffffffffffffffffffffff1673ffffffffffffffffffffffffffffffffffffffff1681526020019081526020015f20819055508015610c9c578273ffffffffffffffffffffffffffffffffffffffff168473ffffffffffffffffffffffffffffffffffffffff167f8c5be1e5ebec7d5bd14f71427d1e84f3dd0314c0f7b2291e5b200ac8c7c3b92584604051610c939190611076565b60405180910390a35b50505050565b5f73ffffffffffffffffffffffffffffffffffffffff168373ffffffffffffffffffffffffffffffffffffffff1603610cf2578060025f828254610ce69190611263565b92505081905550610dc0565b5f805f8573ffffffffffffffffffffffffffffffffffffffff1673ffffffffffffffffffffffffffffffffffffffff1681526020019081526020015f2054905081811015610d7b578381836040517fe450d38c000000000000000000000000000000000000000000000000000000008152600401610d7293929190611201565b60405180910390fd5b8181035f808673ffffffffffffffffffffffffffffffffffffffff1673ffffffffffffffffffffffffffffffffffffffff1681526020019081526020015f2081905550505b5f73ffffffffffffffffffffffffffffffffffffffff168273ffffffffffffffffffffffffffffffffffffffff1603610e07578060025f8282540392505081905550610e51565b805f808473ffffffffffffffffffffffffffffffffffffffff1673ffffffffffffffffffffffffffffffffffffffff1681526020019081526020015f205f82825401925050819055505b8173ffffffffffffffffffffffffffffffffffffffff168373ffffffffffffffffffffffffffffffffffffffff167fddf252ad1be2c89b69c2b068fc378daa952ba7f163c4a11628f55a4df523b3ef83604051610eae9190611076565b60405180910390a3505050565b5f81519050919050565b5f82825260208201905092915050565b5f5b83811015610ef2578082015181840152602081019050610ed7565b5f8484015250505050565b5f601f19601f8301169050919050565b5f610f1782610ebb565b610f218185610ec5565b9350610f31818560208601610ed5565b610f3a81610efd565b840191505092915050565b5f6020820190508181035f830152610f5d8184610f0d565b905092915050565b5f80fd5b5f73ffffffffffffffffffffffffffffffffffffffff82169050919050565b5f610f9282610f69565b9050919050565b610fa281610f88565b8114610fac575f80fd5b50565b5f81359050610fbd81610f99565b92915050565b5f819050919050565b610fd581610fc3565b8114610fdf575f80fd5b50565b5f81359050610ff081610fcc565b92915050565b5f806040838503121561100c5761100b610f65565b5b5f61101985828601610faf565b925050602061102a85828601610fe2565b9150509250929050565b5f8115159050919050565b61104881611034565b82525050565b5f6020820190506110615f83018461103f565b92915050565b61107081610fc3565b82525050565b5f6020820190506110895f830184611067565b92915050565b5f805f606084860312156110a6576110a5610f65565b5b5f6110b386828701610faf565b93505060206110c486828701610faf565b92505060406110d586828701610fe2565b9150509250925092565b5f60ff82169050919050565b6110f4816110df565b82525050565b5f60208201905061110d5f8301846110eb565b92915050565b5f6020828403121561112857611127610f65565b5b5f61113584828501610faf565b91505092915050565b61114781610f88565b82525050565b5f6020820190506111605f83018461113e565b92915050565b5f806040838503121561117c5761117b610f65565b5b5f61118985828601610faf565b925050602061119a85828601610faf565b9150509250929050565b7f4e487b71000000000000000000000000000000000000000000000000000000005f52602260045260245ffd5b5f60028204905060018216806111e857607f821691505b6020821081036111fb576111fa6111a4565b5b50919050565b5f6060820190506112145f83018661113e565b6112216020830185611067565b61122e6040830184611067565b949350505050565b7f4e487b71000000000000000000000000000000000000000000000000000000005f52601160045260245ffd5b5f61126d82610fc3565b915061127883610fc3565b92508282019050808211156112905761128f611236565b5b9291505056fea2646970667358221220ef306959ae1f17f2b71acbd15d68700c083c785eece15899f4361f2b3b84bdcd64736f6c63430008150033",
  "immutableReferences": {},
  "source": "// SPDX-License-Identifier: MIT\r\npragma solidity ^0.8.20;\r\n\r\nimport \"@openzeppelin/contracts/token/ERC20/ERC20.sol\";\r\nimport \"@openzeppelin/contracts/access/Ownable.sol\";\r\nimport \"@opengsn/contracts/src/ERC2771Recipient.sol\";  //  Import GSN v3\r\n\r\ncontract GSMCToken is ERC20, Ownable, ERC2771Recipient {\r\n    constructor(\r\n        uint256 initialSupply, \r\n        address initialOwner,\r\n        address forwarder //  GSN Trusted Forwarder\r\n    ) ERC20(\"GSMC Token\", \"GSMC\") Ownable(initialOwner) {\r\n        _mint(initialOwner, initialSupply);\r\n        _setTrustedForwarder(forwarder);  //  Set GSN Forwarder\r\n    }\r\n\r\n    function faucet(address to, uint256 amount) public onlyOwner {\r\n        _mint(to, amount);\r\n    }\r\n\r\n    //  Override _msgSender() and _msgData() for GSN compatibility\r\n    function _msgSender() internal view override(Context, ERC2771Recipient)\r\n        returns (address sender) {\r\n        return ERC2771Recipient._msgSender();\r\n    }\r\n\r\n    function _msgData() internal view override(Context, ERC2771Recipient)\r\n        returns (bytes calldata) {\r\n        return ERC2771Recipient._msgData();\r\n    }\r\n\r\n    //  GSN version\r\n    function versionRecipient() external pure returns (string memory) {\r\n        return \"3.0.1\";\r\n    }\r\n}\r\n",
  "sourcePath": "D:\\sandbox\\truffle-contract\\contracts\\GSMCToken.sol",
  "compiler": {
    "name": "solc",
    "version": "0.8.21+commit.d9974bed.Emscripten.clang"
  },
  "schemaVersion": "3.4.16",
  "updatedAt": "2025-03-24T21:13:30.120Z",
  "devdoc": {
    "errors": {
      "ERC20InsufficientAllowance(address,uint256,uint256)": [
        {
          "details": "Indicates a failure with the `spender`s `allowance`. Used in transfers.",
          "params": {
            "allowance": "Amount of tokens a `spender` is allowed to operate with.",
            "needed": "Minimum amount required to perform a transfer.",
            "spender": "Address that may be allowed to operate on tokens without being their owner."
          }
        }
      ],
      "ERC20InsufficientBalance(address,uint256,uint256)": [
        {
          "details": "Indicates an error related to the current `balance` of a `sender`. Used in transfers.",
          "params": {
            "balance": "Current balance for the interacting account.",
            "needed": "Minimum amount required to perform a transfer.",
            "sender": "Address whose tokens are being transferred."
          }
        }
      ],
      "ERC20InvalidApprover(address)": [
        {
          "details": "Indicates a failure with the `approver` of a token to be approved. Used in approvals.",
          "params": {
            "approver": "Address initiating an approval operation."
          }
        }
      ],
      "ERC20InvalidReceiver(address)": [
        {
          "details": "Indicates a failure with the token `receiver`. Used in transfers.",
          "params": {
            "receiver": "Address to which tokens are being transferred."
          }
        }
      ],
      "ERC20InvalidSender(address)": [
        {
          "details": "Indicates a failure with the token `sender`. Used in transfers.",
          "params": {
            "sender": "Address whose tokens are being transferred."
          }
        }
      ],
      "ERC20InvalidSpender(address)": [
        {
          "details": "Indicates a failure with the `spender` to be approved. Used in approvals.",
          "params": {
            "spender": "Address that may be allowed to operate on tokens without being their owner."
          }
        }
      ],
      "OwnableInvalidOwner(address)": [
        {
          "details": "The owner is not a valid owner account. (eg. `address(0)`)"
        }
      ],
      "OwnableUnauthorizedAccount(address)": [
        {
          "details": "The caller account is not authorized to perform an operation."
        }
      ]
    },
    "events": {
      "Approval(address,address,uint256)": {
        "details": "Emitted when the allowance of a `spender` for an `owner` is set by a call to {approve}. `value` is the new allowance."
      },
      "Transfer(address,address,uint256)": {
        "details": "Emitted when `value` tokens are moved from one account (`from`) to another (`to`). Note that `value` may be zero."
      }
    },
    "kind": "dev",
    "methods": {
      "allowance(address,address)": {
        "details": "See {IERC20-allowance}."
      },
      "approve(address,uint256)": {
        "details": "See {IERC20-approve}. NOTE: If `value` is the maximum `uint256`, the allowance is not updated on `transferFrom`. This is semantically equivalent to an infinite approval. Requirements: - `spender` cannot be the zero address."
      },
      "balanceOf(address)": {
        "details": "See {IERC20-balanceOf}."
      },
      "decimals()": {
        "details": "Returns the number of decimals used to get its user representation. For example, if `decimals` equals `2`, a balance of `505` tokens should be displayed to a user as `5.05` (`505 / 10 ** 2`). Tokens usually opt for a value of 18, imitating the relationship between Ether and Wei. This is the default value returned by this function, unless it's overridden. NOTE: This information is only used for _display_ purposes: it in no way affects any of the arithmetic of the contract, including {IERC20-balanceOf} and {IERC20-transfer}."
      },
      "getTrustedForwarder()": {
        "returns": {
          "forwarder": "The address of the Forwarder contract that is being used."
        }
      },
      "isTrustedForwarder(address)": {
        "params": {
          "forwarder": "The address of the Forwarder contract that is being used."
        },
        "returns": {
          "_0": "isTrustedForwarder `true` if the Forwarder is trusted to forward relayed transactions by this Recipient."
        }
      },
      "name()": {
        "details": "Returns the name of the token."
      },
      "owner()": {
        "details": "Returns the address of the current owner."
      },
      "renounceOwnership()": {
        "details": "Leaves the contract without owner. It will not be possible to call `onlyOwner` functions. Can only be called by the current owner. NOTE: Renouncing ownership will leave the contract without an owner, thereby disabling any functionality that is only available to the owner."
      },
      "symbol()": {
        "details": "Returns the symbol of the token, usually a shorter version of the name."
      },
      "totalSupply()": {
        "details": "See {IERC20-totalSupply}."
      },
      "transfer(address,uint256)": {
        "details": "See {IERC20-transfer}. Requirements: - `to` cannot be the zero address. - the caller must have a balance of at least `value`."
      },
      "transferFrom(address,address,uint256)": {
        "details": "See {IERC20-transferFrom}. Skips emitting an {Approval} event indicating an allowance update. This is not required by the ERC. See {xref-ERC20-_approve-address-address-uint256-bool-}[_approve]. NOTE: Does not update the allowance if the current allowance is the maximum `uint256`. Requirements: - `from` and `to` cannot be the zero address. - `from` must have a balance of at least `value`. - the caller must have allowance for ``from``'s tokens of at least `value`."
      },
      "transferOwnership(address)": {
        "details": "Transfers ownership of the contract to a new account (`newOwner`). Can only be called by the current owner."
      }
    },
    "version": 1
  },
  "userdoc": {
    "kind": "user",
    "methods": {
      "getTrustedForwarder()": {
        "notice": ":warning: **Warning** :warning: The Forwarder can have a full control over your Recipient. Only trust verified Forwarder.Method is not a required method to allow Recipients to trust multiple Forwarders. Not recommended yet."
      },
      "isTrustedForwarder(address)": {
        "notice": ":warning: **Warning** :warning: The Forwarder can have a full control over your Recipient. Only trust verified Forwarder."
      }
    },
    "version": 1
  }
}